{
  "contractName": "MySplitNft",
  "abi": [
    {
      "inputs": [
        {
          "internalType": "string",
          "name": "uri",
          "type": "string"
        }
      ],
      "stateMutability": "nonpayable",
      "type": "constructor"
    },
    {
      "anonymous": false,
      "inputs": [
        {
          "indexed": true,
          "internalType": "address",
          "name": "account",
          "type": "address"
        },
        {
          "indexed": true,
          "internalType": "address",
          "name": "operator",
          "type": "address"
        },
        {
          "indexed": false,
          "internalType": "bool",
          "name": "approved",
          "type": "bool"
        }
      ],
      "name": "ApprovalForAll",
      "type": "event"
    },
    {
      "anonymous": false,
      "inputs": [
        {
          "indexed": true,
          "internalType": "address",
          "name": "operator",
          "type": "address"
        },
        {
          "indexed": true,
          "internalType": "address",
          "name": "from",
          "type": "address"
        },
        {
          "indexed": true,
          "internalType": "address",
          "name": "to",
          "type": "address"
        },
        {
          "indexed": false,
          "internalType": "uint256[]",
          "name": "ids",
          "type": "uint256[]"
        },
        {
          "indexed": false,
          "internalType": "uint256[]",
          "name": "values",
          "type": "uint256[]"
        }
      ],
      "name": "TransferBatch",
      "type": "event"
    },
    {
      "anonymous": false,
      "inputs": [
        {
          "indexed": true,
          "internalType": "address",
          "name": "operator",
          "type": "address"
        },
        {
          "indexed": true,
          "internalType": "address",
          "name": "from",
          "type": "address"
        },
        {
          "indexed": true,
          "internalType": "address",
          "name": "to",
          "type": "address"
        },
        {
          "indexed": false,
          "internalType": "uint256",
          "name": "id",
          "type": "uint256"
        },
        {
          "indexed": false,
          "internalType": "uint256",
          "name": "value",
          "type": "uint256"
        }
      ],
      "name": "TransferSingle",
      "type": "event"
    },
    {
      "anonymous": false,
      "inputs": [
        {
          "indexed": false,
          "internalType": "string",
          "name": "value",
          "type": "string"
        },
        {
          "indexed": true,
          "internalType": "uint256",
          "name": "id",
          "type": "uint256"
        }
      ],
      "name": "URI",
      "type": "event"
    },
    {
      "inputs": [
        {
          "internalType": "address",
          "name": "account",
          "type": "address"
        },
        {
          "internalType": "uint256",
          "name": "id",
          "type": "uint256"
        }
      ],
      "name": "balanceOf",
      "outputs": [
        {
          "internalType": "uint256",
          "name": "",
          "type": "uint256"
        }
      ],
      "stateMutability": "view",
      "type": "function",
      "constant": true
    },
    {
      "inputs": [
        {
          "internalType": "address[]",
          "name": "accounts",
          "type": "address[]"
        },
        {
          "internalType": "uint256[]",
          "name": "ids",
          "type": "uint256[]"
        }
      ],
      "name": "balanceOfBatch",
      "outputs": [
        {
          "internalType": "uint256[]",
          "name": "",
          "type": "uint256[]"
        }
      ],
      "stateMutability": "view",
      "type": "function",
      "constant": true
    },
    {
      "inputs": [
        {
          "internalType": "address",
          "name": "account",
          "type": "address"
        },
        {
          "internalType": "address",
          "name": "operator",
          "type": "address"
        }
      ],
      "name": "isApprovedForAll",
      "outputs": [
        {
          "internalType": "bool",
          "name": "",
          "type": "bool"
        }
      ],
      "stateMutability": "view",
      "type": "function",
      "constant": true
    },
    {
      "inputs": [
        {
          "internalType": "address",
          "name": "from",
          "type": "address"
        },
        {
          "internalType": "address",
          "name": "to",
          "type": "address"
        },
        {
          "internalType": "uint256[]",
          "name": "ids",
          "type": "uint256[]"
        },
        {
          "internalType": "uint256[]",
          "name": "amounts",
          "type": "uint256[]"
        },
        {
          "internalType": "bytes",
          "name": "data",
          "type": "bytes"
        }
      ],
      "name": "safeBatchTransferFrom",
      "outputs": [],
      "stateMutability": "nonpayable",
      "type": "function"
    },
    {
      "inputs": [
        {
          "internalType": "address",
          "name": "from",
          "type": "address"
        },
        {
          "internalType": "address",
          "name": "to",
          "type": "address"
        },
        {
          "internalType": "uint256",
          "name": "id",
          "type": "uint256"
        },
        {
          "internalType": "uint256",
          "name": "amount",
          "type": "uint256"
        },
        {
          "internalType": "bytes",
          "name": "data",
          "type": "bytes"
        }
      ],
      "name": "safeTransferFrom",
      "outputs": [],
      "stateMutability": "nonpayable",
      "type": "function"
    },
    {
      "inputs": [
        {
          "internalType": "address",
          "name": "operator",
          "type": "address"
        },
        {
          "internalType": "bool",
          "name": "approved",
          "type": "bool"
        }
      ],
      "name": "setApprovalForAll",
      "outputs": [],
      "stateMutability": "nonpayable",
      "type": "function"
    },
    {
      "inputs": [
        {
          "internalType": "bytes4",
          "name": "interfaceId",
          "type": "bytes4"
        }
      ],
      "name": "supportsInterface",
      "outputs": [
        {
          "internalType": "bool",
          "name": "",
          "type": "bool"
        }
      ],
      "stateMutability": "view",
      "type": "function",
      "constant": true
    },
    {
      "inputs": [
        {
          "internalType": "uint256",
          "name": "",
          "type": "uint256"
        }
      ],
      "name": "uri",
      "outputs": [
        {
          "internalType": "string",
          "name": "",
          "type": "string"
        }
      ],
      "stateMutability": "view",
      "type": "function",
      "constant": true
    },
    {
      "inputs": [
        {
          "internalType": "contract MyNft",
          "name": "nft",
          "type": "address"
        },
        {
          "internalType": "uint256",
          "name": "tokenId",
          "type": "uint256"
        }
      ],
      "name": "lock",
      "outputs": [],
      "stateMutability": "nonpayable",
      "type": "function"
    },
    {
      "inputs": [
        {
          "internalType": "contract MyNft",
          "name": "nft",
          "type": "address"
        },
        {
          "internalType": "uint256",
          "name": "tokenId",
          "type": "uint256"
        }
      ],
      "name": "unlock",
      "outputs": [],
      "stateMutability": "nonpayable",
      "type": "function"
    }
  ],
  "bytecode": "0x60806040523480156200001157600080fd5b50604051620031f9380380620031f98339818101604052810190620000379190620002ba565b8062000049816200005160201b60201c565b50506200036f565b8060029080519060200190620000699291906200006d565b5050565b8280546200007b906200033a565b90600052602060002090601f0160209004810192826200009f5760008555620000eb565b82601f10620000ba57805160ff1916838001178555620000eb565b82800160010185558215620000eb579182015b82811115620000ea578251825591602001919060010190620000cd565b5b509050620000fa9190620000fe565b5090565b5b8082111562000119576000816000905550600101620000ff565b5090565b6000604051905090565b600080fd5b600080fd5b600080fd5b600080fd5b6000601f19601f8301169050919050565b7f4e487b7100000000000000000000000000000000000000000000000000000000600052604160045260246000fd5b62000186826200013b565b810181811067ffffffffffffffff82111715620001a857620001a76200014c565b5b80604052505050565b6000620001bd6200011d565b9050620001cb82826200017b565b919050565b600067ffffffffffffffff821115620001ee57620001ed6200014c565b5b620001f9826200013b565b9050602081019050919050565b60005b838110156200022657808201518184015260208101905062000209565b8381111562000236576000848401525b50505050565b6000620002536200024d84620001d0565b620001b1565b90508281526020810184848401111562000272576200027162000136565b5b6200027f84828562000206565b509392505050565b600082601f8301126200029f576200029e62000131565b5b8151620002b18482602086016200023c565b91505092915050565b600060208284031215620002d357620002d262000127565b5b600082015167ffffffffffffffff811115620002f457620002f36200012c565b5b620003028482850162000287565b91505092915050565b7f4e487b7100000000000000000000000000000000000000000000000000000000600052602260045260246000fd5b600060028204905060018216806200035357607f821691505b6020821081036200036957620003686200030b565b5b50919050565b612e7a806200037f6000396000f3fe608060405234801561001057600080fd5b506004361061009d5760003560e01c80634e1273f4116100665780634e1273f41461016a5780637eee288d1461019a578063a22cb465146101b6578063e985e9c5146101d2578063f242432a146102025761009d565b8062fdd58e146100a257806301ffc9a7146100d25780630e89341c14610102578063282d3fdf146101325780632eb2c2d61461014e575b600080fd5b6100bc60048036038101906100b791906119c9565b61021e565b6040516100c99190611a18565b60405180910390f35b6100ec60048036038101906100e79190611a8b565b6102e6565b6040516100f99190611ad3565b60405180910390f35b61011c60048036038101906101179190611aee565b6103c8565b6040516101299190611bb4565b60405180910390f35b61014c60048036038101906101479190611c14565b61045c565b005b61016860048036038101906101639190611e51565b61059c565b005b610184600480360381019061017f9190611fe3565b61063d565b6040516101919190612119565b60405180910390f35b6101b460048036038101906101af9190611c14565b610756565b005b6101d060048036038101906101cb9190612167565b6107eb565b005b6101ec60048036038101906101e791906121a7565b610801565b6040516101f99190611ad3565b60405180910390f35b61021c600480360381019061021791906121e7565b610895565b005b60008073ffffffffffffffffffffffffffffffffffffffff168373ffffffffffffffffffffffffffffffffffffffff160361028e576040517f08c379a0000000000000000000000000000000000000000000000000000000008152600401610285906122f0565b60405180910390fd5b60008083815260200190815260200160002060008473ffffffffffffffffffffffffffffffffffffffff1673ffffffffffffffffffffffffffffffffffffffff16815260200190815260200160002054905092915050565b60007fd9b67a26000000000000000000000000000000000000000000000000000000007bffffffffffffffffffffffffffffffffffffffffffffffffffffffff1916827bffffffffffffffffffffffffffffffffffffffffffffffffffffffff191614806103b157507f0e89341c000000000000000000000000000000000000000000000000000000007bffffffffffffffffffffffffffffffffffffffffffffffffffffffff1916827bffffffffffffffffffffffffffffffffffffffffffffffffffffffff1916145b806103c157506103c082610936565b5b9050919050565b6060600280546103d79061233f565b80601f01602080910402602001604051908101604052809291908181526020018280546104039061233f565b80156104505780601f1061042557610100808354040283529160200191610450565b820191906000526020600020905b81548152906001019060200180831161043357829003601f168201915b50505050509050919050565b3073ffffffffffffffffffffffffffffffffffffffff168273ffffffffffffffffffffffffffffffffffffffff1663081812fc836040518263ffffffff1660e01b81526004016104ac9190611a18565b602060405180830381865afa1580156104c9573d6000803e3d6000fd5b505050506040513d601f19601f820116820180604052508101906104ed9190612385565b73ffffffffffffffffffffffffffffffffffffffff161461050d57600080fd5b8173ffffffffffffffffffffffffffffffffffffffff166323b872dd3330846040518463ffffffff1660e01b815260040161054a939291906123c1565b600060405180830381600087803b15801561056457600080fd5b505af1158015610578573d6000803e3d6000fd5b5050505061059833826005604051806020016040528060008152506109a0565b5050565b6105a4610b50565b73ffffffffffffffffffffffffffffffffffffffff168573ffffffffffffffffffffffffffffffffffffffff1614806105ea57506105e9856105e4610b50565b610801565b5b610629576040517f08c379a00000000000000000000000000000000000000000000000000000000081526004016106209061246a565b60405180910390fd5b6106368585858585610b58565b5050505050565b60608151835114610683576040517f08c379a000000000000000000000000000000000000000000000000000000000815260040161067a906124fc565b60405180910390fd5b6000835167ffffffffffffffff8111156106a05761069f611c59565b5b6040519080825280602002602001820160405280156106ce5781602001602082028036833780820191505090505b50905060005b845181101561074b5761071b8582815181106106f3576106f261251c565b5b602002602001015185838151811061070e5761070d61251c565b5b602002602001015161021e565b82828151811061072e5761072d61251c565b5b602002602001018181525050806107449061257a565b90506106d4565b508091505092915050565b6005610762338361021e565b1461076c57600080fd5b8173ffffffffffffffffffffffffffffffffffffffff166342842e0e3033846040518463ffffffff1660e01b81526004016107a9939291906123c1565b600060405180830381600087803b1580156107c357600080fd5b505af11580156107d7573d6000803e3d6000fd5b505050506107e733826005610e79565b5050565b6107fd6107f6610b50565b83836110bf565b5050565b6000600160008473ffffffffffffffffffffffffffffffffffffffff1673ffffffffffffffffffffffffffffffffffffffff16815260200190815260200160002060008373ffffffffffffffffffffffffffffffffffffffff1673ffffffffffffffffffffffffffffffffffffffff16815260200190815260200160002060009054906101000a900460ff16905092915050565b61089d610b50565b73ffffffffffffffffffffffffffffffffffffffff168573ffffffffffffffffffffffffffffffffffffffff1614806108e357506108e2856108dd610b50565b610801565b5b610922576040517f08c379a000000000000000000000000000000000000000000000000000000000815260040161091990612634565b60405180910390fd5b61092f858585858561122b565b5050505050565b60007f01ffc9a7000000000000000000000000000000000000000000000000000000007bffffffffffffffffffffffffffffffffffffffffffffffffffffffff1916827bffffffffffffffffffffffffffffffffffffffffffffffffffffffff1916149050919050565b600073ffffffffffffffffffffffffffffffffffffffff168473ffffffffffffffffffffffffffffffffffffffff1603610a0f576040517f08c379a0000000000000000000000000000000000000000000000000000000008152600401610a06906126c6565b60405180910390fd5b6000610a19610b50565b90506000610a26856114c6565b90506000610a33856114c6565b9050610a4483600089858589611540565b8460008088815260200190815260200160002060008973ffffffffffffffffffffffffffffffffffffffff1673ffffffffffffffffffffffffffffffffffffffff1681526020019081526020016000206000828254610aa391906126e6565b925050819055508673ffffffffffffffffffffffffffffffffffffffff16600073ffffffffffffffffffffffffffffffffffffffff168473ffffffffffffffffffffffffffffffffffffffff167fc3d58168c5ae7397731d063d5bbf3d657854427343f4c083240f7aacaa2d0f628989604051610b2192919061273c565b60405180910390a4610b3883600089858589611548565b610b4783600089898989611550565b50505050505050565b600033905090565b8151835114610b9c576040517f08c379a0000000000000000000000000000000000000000000000000000000008152600401610b93906127d7565b60405180910390fd5b600073ffffffffffffffffffffffffffffffffffffffff168473ffffffffffffffffffffffffffffffffffffffff1603610c0b576040517f08c379a0000000000000000000000000000000000000000000000000000000008152600401610c0290612869565b60405180910390fd5b6000610c15610b50565b9050610c25818787878787611540565b60005b8451811015610dd6576000858281518110610c4657610c4561251c565b5b602002602001015190506000858381518110610c6557610c6461251c565b5b60200260200101519050600080600084815260200190815260200160002060008b73ffffffffffffffffffffffffffffffffffffffff1673ffffffffffffffffffffffffffffffffffffffff16815260200190815260200160002054905081811015610d06576040517f08c379a0000000000000000000000000000000000000000000000000000000008152600401610cfd906128fb565b60405180910390fd5b81810360008085815260200190815260200160002060008c73ffffffffffffffffffffffffffffffffffffffff1673ffffffffffffffffffffffffffffffffffffffff168152602001908152602001600020819055508160008085815260200190815260200160002060008b73ffffffffffffffffffffffffffffffffffffffff1673ffffffffffffffffffffffffffffffffffffffff1681526020019081526020016000206000828254610dbb91906126e6565b9250508190555050505080610dcf9061257a565b9050610c28565b508473ffffffffffffffffffffffffffffffffffffffff168673ffffffffffffffffffffffffffffffffffffffff168273ffffffffffffffffffffffffffffffffffffffff167f4a39dc06d4c0dbc64b70af90fd698a233a518aa5d07e595d983b8c0526c8f7fb8787604051610e4d92919061291b565b60405180910390a4610e63818787878787611548565b610e71818787878787611727565b505050505050565b600073ffffffffffffffffffffffffffffffffffffffff168373ffffffffffffffffffffffffffffffffffffffff1603610ee8576040517f08c379a0000000000000000000000000000000000000000000000000000000008152600401610edf906129c4565b60405180910390fd5b6000610ef2610b50565b90506000610eff846114c6565b90506000610f0c846114c6565b9050610f2c83876000858560405180602001604052806000815250611540565b600080600087815260200190815260200160002060008873ffffffffffffffffffffffffffffffffffffffff1673ffffffffffffffffffffffffffffffffffffffff16815260200190815260200160002054905084811015610fc3576040517f08c379a0000000000000000000000000000000000000000000000000000000008152600401610fba90612a56565b60405180910390fd5b84810360008088815260200190815260200160002060008973ffffffffffffffffffffffffffffffffffffffff1673ffffffffffffffffffffffffffffffffffffffff16815260200190815260200160002081905550600073ffffffffffffffffffffffffffffffffffffffff168773ffffffffffffffffffffffffffffffffffffffff168573ffffffffffffffffffffffffffffffffffffffff167fc3d58168c5ae7397731d063d5bbf3d657854427343f4c083240f7aacaa2d0f62898960405161109092919061273c565b60405180910390a46110b684886000868660405180602001604052806000815250611548565b50505050505050565b8173ffffffffffffffffffffffffffffffffffffffff168373ffffffffffffffffffffffffffffffffffffffff160361112d576040517f08c379a000000000000000000000000000000000000000000000000000000000815260040161112490612ae8565b60405180910390fd5b80600160008573ffffffffffffffffffffffffffffffffffffffff1673ffffffffffffffffffffffffffffffffffffffff16815260200190815260200160002060008473ffffffffffffffffffffffffffffffffffffffff1673ffffffffffffffffffffffffffffffffffffffff16815260200190815260200160002060006101000a81548160ff0219169083151502179055508173ffffffffffffffffffffffffffffffffffffffff168373ffffffffffffffffffffffffffffffffffffffff167f17307eab39ab6107e8899845ad3d59bd9653f200f220920489ca2b5937696c318360405161121e9190611ad3565b60405180910390a3505050565b600073ffffffffffffffffffffffffffffffffffffffff168473ffffffffffffffffffffffffffffffffffffffff160361129a576040517f08c379a000000000000000000000000000000000000000000000000000000000815260040161129190612869565b60405180910390fd5b60006112a4610b50565b905060006112b1856114c6565b905060006112be856114c6565b90506112ce838989858589611540565b600080600088815260200190815260200160002060008a73ffffffffffffffffffffffffffffffffffffffff1673ffffffffffffffffffffffffffffffffffffffff16815260200190815260200160002054905085811015611365576040517f08c379a000000000000000000000000000000000000000000000000000000000815260040161135c906128fb565b60405180910390fd5b85810360008089815260200190815260200160002060008b73ffffffffffffffffffffffffffffffffffffffff1673ffffffffffffffffffffffffffffffffffffffff168152602001908152602001600020819055508560008089815260200190815260200160002060008a73ffffffffffffffffffffffffffffffffffffffff1673ffffffffffffffffffffffffffffffffffffffff168152602001908152602001600020600082825461141a91906126e6565b925050819055508773ffffffffffffffffffffffffffffffffffffffff168973ffffffffffffffffffffffffffffffffffffffff168573ffffffffffffffffffffffffffffffffffffffff167fc3d58168c5ae7397731d063d5bbf3d657854427343f4c083240f7aacaa2d0f628a8a60405161149792919061273c565b60405180910390a46114ad848a8a86868a611548565b6114bb848a8a8a8a8a611550565b505050505050505050565b60606000600167ffffffffffffffff8111156114e5576114e4611c59565b5b6040519080825280602002602001820160405280156115135781602001602082028036833780820191505090505b509050828160008151811061152b5761152a61251c565b5b60200260200101818152505080915050919050565b505050505050565b505050505050565b61156f8473ffffffffffffffffffffffffffffffffffffffff166118fe565b1561171f578373ffffffffffffffffffffffffffffffffffffffff1663f23a6e6187878686866040518663ffffffff1660e01b81526004016115b5959493929190612b5d565b6020604051808303816000875af19250505080156115f157506040513d601f19601f820116820180604052508101906115ee9190612bcc565b60015b611696576115fd612c06565b806308c379a0036116595750611611612c28565b8061161c575061165b565b806040517f08c379a00000000000000000000000000000000000000000000000000000000081526004016116509190611bb4565b60405180910390fd5b505b6040517f08c379a000000000000000000000000000000000000000000000000000000000815260040161168d90612d2a565b60405180910390fd5b63f23a6e6160e01b7bffffffffffffffffffffffffffffffffffffffffffffffffffffffff1916817bffffffffffffffffffffffffffffffffffffffffffffffffffffffff19161461171d576040517f08c379a000000000000000000000000000000000000000000000000000000000815260040161171490612dbc565b60405180910390fd5b505b505050505050565b6117468473ffffffffffffffffffffffffffffffffffffffff166118fe565b156118f6578373ffffffffffffffffffffffffffffffffffffffff1663bc197c8187878686866040518663ffffffff1660e01b815260040161178c959493929190612ddc565b6020604051808303816000875af19250505080156117c857506040513d601f19601f820116820180604052508101906117c59190612bcc565b60015b61186d576117d4612c06565b806308c379a00361183057506117e8612c28565b806117f35750611832565b806040517f08c379a00000000000000000000000000000000000000000000000000000000081526004016118279190611bb4565b60405180910390fd5b505b6040517f08c379a000000000000000000000000000000000000000000000000000000000815260040161186490612d2a565b60405180910390fd5b63bc197c8160e01b7bffffffffffffffffffffffffffffffffffffffffffffffffffffffff1916817bffffffffffffffffffffffffffffffffffffffffffffffffffffffff1916146118f4576040517f08c379a00000000000000000000000000000000000000000000000000000000081526004016118eb90612dbc565b60405180910390fd5b505b505050505050565b6000808273ffffffffffffffffffffffffffffffffffffffff163b119050919050565b6000604051905090565b600080fd5b600080fd5b600073ffffffffffffffffffffffffffffffffffffffff82169050919050565b600061196082611935565b9050919050565b61197081611955565b811461197b57600080fd5b50565b60008135905061198d81611967565b92915050565b6000819050919050565b6119a681611993565b81146119b157600080fd5b50565b6000813590506119c38161199d565b92915050565b600080604083850312156119e0576119df61192b565b5b60006119ee8582860161197e565b92505060206119ff858286016119b4565b9150509250929050565b611a1281611993565b82525050565b6000602082019050611a2d6000830184611a09565b92915050565b60007fffffffff0000000000000000000000000000000000000000000000000000000082169050919050565b611a6881611a33565b8114611a7357600080fd5b50565b600081359050611a8581611a5f565b92915050565b600060208284031215611aa157611aa061192b565b5b6000611aaf84828501611a76565b91505092915050565b60008115159050919050565b611acd81611ab8565b82525050565b6000602082019050611ae86000830184611ac4565b92915050565b600060208284031215611b0457611b0361192b565b5b6000611b12848285016119b4565b91505092915050565b600081519050919050565b600082825260208201905092915050565b60005b83811015611b55578082015181840152602081019050611b3a565b83811115611b64576000848401525b50505050565b6000601f19601f8301169050919050565b6000611b8682611b1b565b611b908185611b26565b9350611ba0818560208601611b37565b611ba981611b6a565b840191505092915050565b60006020820190508181036000830152611bce8184611b7b565b905092915050565b6000611be182611955565b9050919050565b611bf181611bd6565b8114611bfc57600080fd5b50565b600081359050611c0e81611be8565b92915050565b60008060408385031215611c2b57611c2a61192b565b5b6000611c3985828601611bff565b9250506020611c4a858286016119b4565b9150509250929050565b600080fd5b7f4e487b7100000000000000000000000000000000000000000000000000000000600052604160045260246000fd5b611c9182611b6a565b810181811067ffffffffffffffff82111715611cb057611caf611c59565b5b80604052505050565b6000611cc3611921565b9050611ccf8282611c88565b919050565b600067ffffffffffffffff821115611cef57611cee611c59565b5b602082029050602081019050919050565b600080fd5b6000611d18611d1384611cd4565b611cb9565b90508083825260208201905060208402830185811115611d3b57611d3a611d00565b5b835b81811015611d645780611d5088826119b4565b845260208401935050602081019050611d3d565b5050509392505050565b600082601f830112611d8357611d82611c54565b5b8135611d93848260208601611d05565b91505092915050565b600080fd5b600067ffffffffffffffff821115611dbc57611dbb611c59565b5b611dc582611b6a565b9050602081019050919050565b82818337600083830152505050565b6000611df4611def84611da1565b611cb9565b905082815260208101848484011115611e1057611e0f611d9c565b5b611e1b848285611dd2565b509392505050565b600082601f830112611e3857611e37611c54565b5b8135611e48848260208601611de1565b91505092915050565b600080600080600060a08688031215611e6d57611e6c61192b565b5b6000611e7b8882890161197e565b9550506020611e8c8882890161197e565b945050604086013567ffffffffffffffff811115611ead57611eac611930565b5b611eb988828901611d6e565b935050606086013567ffffffffffffffff811115611eda57611ed9611930565b5b611ee688828901611d6e565b925050608086013567ffffffffffffffff811115611f0757611f06611930565b5b611f1388828901611e23565b9150509295509295909350565b600067ffffffffffffffff821115611f3b57611f3a611c59565b5b602082029050602081019050919050565b6000611f5f611f5a84611f20565b611cb9565b90508083825260208201905060208402830185811115611f8257611f81611d00565b5b835b81811015611fab5780611f97888261197e565b845260208401935050602081019050611f84565b5050509392505050565b600082601f830112611fca57611fc9611c54565b5b8135611fda848260208601611f4c565b91505092915050565b60008060408385031215611ffa57611ff961192b565b5b600083013567ffffffffffffffff81111561201857612017611930565b5b61202485828601611fb5565b925050602083013567ffffffffffffffff81111561204557612044611930565b5b61205185828601611d6e565b9150509250929050565b600081519050919050565b600082825260208201905092915050565b6000819050602082019050919050565b61209081611993565b82525050565b60006120a28383612087565b60208301905092915050565b6000602082019050919050565b60006120c68261205b565b6120d08185612066565b93506120db83612077565b8060005b8381101561210c5781516120f38882612096565b97506120fe836120ae565b9250506001810190506120df565b5085935050505092915050565b6000602082019050818103600083015261213381846120bb565b905092915050565b61214481611ab8565b811461214f57600080fd5b50565b6000813590506121618161213b565b92915050565b6000806040838503121561217e5761217d61192b565b5b600061218c8582860161197e565b925050602061219d85828601612152565b9150509250929050565b600080604083850312156121be576121bd61192b565b5b60006121cc8582860161197e565b92505060206121dd8582860161197e565b9150509250929050565b600080600080600060a086880312156122035761220261192b565b5b60006122118882890161197e565b95505060206122228882890161197e565b9450506040612233888289016119b4565b9350506060612244888289016119b4565b925050608086013567ffffffffffffffff81111561226557612264611930565b5b61227188828901611e23565b9150509295509295909350565b7f455243313135353a2062616c616e636520717565727920666f7220746865207a60008201527f65726f2061646472657373000000000000000000000000000000000000000000602082015250565b60006122da602b83611b26565b91506122e58261227e565b604082019050919050565b60006020820190508181036000830152612309816122cd565b9050919050565b7f4e487b7100000000000000000000000000000000000000000000000000000000600052602260045260246000fd5b6000600282049050600182168061235757607f821691505b60208210810361236a57612369612310565b5b50919050565b60008151905061237f81611967565b92915050565b60006020828403121561239b5761239a61192b565b5b60006123a984828501612370565b91505092915050565b6123bb81611955565b82525050565b60006060820190506123d660008301866123b2565b6123e360208301856123b2565b6123f06040830184611a09565b949350505050565b7f455243313135353a207472616e736665722063616c6c6572206973206e6f742060008201527f6f776e6572206e6f7220617070726f7665640000000000000000000000000000602082015250565b6000612454603283611b26565b915061245f826123f8565b604082019050919050565b6000602082019050818103600083015261248381612447565b9050919050565b7f455243313135353a206163636f756e747320616e6420696473206c656e67746860008201527f206d69736d617463680000000000000000000000000000000000000000000000602082015250565b60006124e6602983611b26565b91506124f18261248a565b604082019050919050565b60006020820190508181036000830152612515816124d9565b9050919050565b7f4e487b7100000000000000000000000000000000000000000000000000000000600052603260045260246000fd5b7f4e487b7100000000000000000000000000000000000000000000000000000000600052601160045260246000fd5b600061258582611993565b91507fffffffffffffffffffffffffffffffffffffffffffffffffffffffffffffffff82036125b7576125b661254b565b5b600182019050919050565b7f455243313135353a2063616c6c6572206973206e6f74206f776e6572206e6f7260008201527f20617070726f7665640000000000000000000000000000000000000000000000602082015250565b600061261e602983611b26565b9150612629826125c2565b604082019050919050565b6000602082019050818103600083015261264d81612611565b9050919050565b7f455243313135353a206d696e7420746f20746865207a65726f2061646472657360008201527f7300000000000000000000000000000000000000000000000000000000000000602082015250565b60006126b0602183611b26565b91506126bb82612654565b604082019050919050565b600060208201905081810360008301526126df816126a3565b9050919050565b60006126f182611993565b91506126fc83611993565b9250827fffffffffffffffffffffffffffffffffffffffffffffffffffffffffffffffff038211156127315761273061254b565b5b828201905092915050565b60006040820190506127516000830185611a09565b61275e6020830184611a09565b9392505050565b7f455243313135353a2069647320616e6420616d6f756e7473206c656e6774682060008201527f6d69736d61746368000000000000000000000000000000000000000000000000602082015250565b60006127c1602883611b26565b91506127cc82612765565b604082019050919050565b600060208201905081810360008301526127f0816127b4565b9050919050565b7f455243313135353a207472616e7366657220746f20746865207a65726f20616460008201527f6472657373000000000000000000000000000000000000000000000000000000602082015250565b6000612853602583611b26565b915061285e826127f7565b604082019050919050565b6000602082019050818103600083015261288281612846565b9050919050565b7f455243313135353a20696e73756666696369656e742062616c616e636520666f60008201527f72207472616e7366657200000000000000000000000000000000000000000000602082015250565b60006128e5602a83611b26565b91506128f082612889565b604082019050919050565b60006020820190508181036000830152612914816128d8565b9050919050565b6000604082019050818103600083015261293581856120bb565b9050818103602083015261294981846120bb565b90509392505050565b7f455243313135353a206275726e2066726f6d20746865207a65726f206164647260008201527f6573730000000000000000000000000000000000000000000000000000000000602082015250565b60006129ae602383611b26565b91506129b982612952565b604082019050919050565b600060208201905081810360008301526129dd816129a1565b9050919050565b7f455243313135353a206275726e20616d6f756e7420657863656564732062616c60008201527f616e636500000000000000000000000000000000000000000000000000000000602082015250565b6000612a40602483611b26565b9150612a4b826129e4565b604082019050919050565b60006020820190508181036000830152612a6f81612a33565b9050919050565b7f455243313135353a2073657474696e6720617070726f76616c2073746174757360008201527f20666f722073656c660000000000000000000000000000000000000000000000602082015250565b6000612ad2602983611b26565b9150612add82612a76565b604082019050919050565b60006020820190508181036000830152612b0181612ac5565b9050919050565b600081519050919050565b600082825260208201905092915050565b6000612b2f82612b08565b612b398185612b13565b9350612b49818560208601611b37565b612b5281611b6a565b840191505092915050565b600060a082019050612b7260008301886123b2565b612b7f60208301876123b2565b612b8c6040830186611a09565b612b996060830185611a09565b8181036080830152612bab8184612b24565b90509695505050505050565b600081519050612bc681611a5f565b92915050565b600060208284031215612be257612be161192b565b5b6000612bf084828501612bb7565b91505092915050565b60008160e01c9050919050565b600060033d1115612c255760046000803e612c22600051612bf9565b90505b90565b600060443d10612cb557612c3a611921565b60043d036004823e80513d602482011167ffffffffffffffff82111715612c62575050612cb5565b808201805167ffffffffffffffff811115612c805750505050612cb5565b80602083010160043d038501811115612c9d575050505050612cb5565b612cac82602001850186611c88565b82955050505050505b90565b7f455243313135353a207472616e7366657220746f206e6f6e204552433131353560008201527f526563656976657220696d706c656d656e746572000000000000000000000000602082015250565b6000612d14603483611b26565b9150612d1f82612cb8565b604082019050919050565b60006020820190508181036000830152612d4381612d07565b9050919050565b7f455243313135353a204552433131353552656365697665722072656a6563746560008201527f6420746f6b656e73000000000000000000000000000000000000000000000000602082015250565b6000612da6602883611b26565b9150612db182612d4a565b604082019050919050565b60006020820190508181036000830152612dd581612d99565b9050919050565b600060a082019050612df160008301886123b2565b612dfe60208301876123b2565b8181036040830152612e1081866120bb565b90508181036060830152612e2481856120bb565b90508181036080830152612e388184612b24565b9050969550505050505056fea2646970667358221220591308305ed71be11ebff9ac0c9ce34c32996e466b3959ba920b808782d77f3c64736f6c634300080e0033",
  "immutableReferences": {},
  "source": "pragma solidity ^0.8.0;\n\nimport \"@openzeppelin/contracts/token/ERC1155/ERC1155.sol\";\nimport \"./MyNft.sol\";\n\n\ncontract MySplitNft is ERC1155 {\n    constructor(string memory uri) ERC1155(uri) {}\n\n    function lock(MyNft nft, uint256 tokenId) public{\n        require(nft.getApproved(tokenId) == address(this));\n        nft.transferFrom(msg.sender, address(this), tokenId);\n        _mint(msg.sender, tokenId, 5,\"\");\n    }\n\n    function unlock(MyNft nft, uint256 tokenId) public{\n        require(balanceOf(msg.sender, tokenId) == 5);\n        nft.safeTransferFrom(address(this),msg.sender, tokenId);\n        _burn(msg.sender, tokenId, 5);\n    }\n}",
  "sourcePath": "/home/jiri/git/work/cleverlance/nft/contracts/MySplitNft.sol",
  "compiler": {
    "name": "solc",
    "version": "0.8.14+commit.80d49f37.Emscripten.clang"
  },
  "schemaVersion": "3.4.7",
  "updatedAt": "2022-05-19T12:41:56.237Z",
  "networkType": "ethereum",
  "devdoc": {
    "kind": "dev",
    "methods": {
      "balanceOf(address,uint256)": {
        "details": "See {IERC1155-balanceOf}. Requirements: - `account` cannot be the zero address."
      },
      "balanceOfBatch(address[],uint256[])": {
        "details": "See {IERC1155-balanceOfBatch}. Requirements: - `accounts` and `ids` must have the same length."
      },
      "isApprovedForAll(address,address)": {
        "details": "See {IERC1155-isApprovedForAll}."
      },
      "safeBatchTransferFrom(address,address,uint256[],uint256[],bytes)": {
        "details": "See {IERC1155-safeBatchTransferFrom}."
      },
      "safeTransferFrom(address,address,uint256,uint256,bytes)": {
        "details": "See {IERC1155-safeTransferFrom}."
      },
      "setApprovalForAll(address,bool)": {
        "details": "See {IERC1155-setApprovalForAll}."
      },
      "supportsInterface(bytes4)": {
        "details": "See {IERC165-supportsInterface}."
      },
      "uri(uint256)": {
        "details": "See {IERC1155MetadataURI-uri}. This implementation returns the same URI for *all* token types. It relies on the token type ID substitution mechanism https://eips.ethereum.org/EIPS/eip-1155#metadata[defined in the EIP]. Clients calling this function must replace the `\\{id\\}` substring with the actual token type ID."
      }
    },
    "version": 1
  },
  "userdoc": {
    "kind": "user",
    "methods": {},
    "version": 1
  }
}