{
  "contractName": "Random",
  "abi": [
    {
      "anonymous": false,
      "inputs": [],
      "name": "random",
      "type": "event"
    },
    {
      "inputs": [],
      "name": "_random",
      "outputs": [
        {
          "internalType": "uint256",
          "name": "",
          "type": "uint256"
        }
      ],
      "stateMutability": "view",
      "type": "function",
      "constant": true
    },
    {
      "inputs": [],
      "name": "emitRandom",
      "outputs": [],
      "stateMutability": "nonpayable",
      "type": "function"
    },
    {
      "inputs": [
        {
          "internalType": "uint256",
          "name": "number",
          "type": "uint256"
        }
      ],
      "name": "receiveRandom",
      "outputs": [],
      "stateMutability": "nonpayable",
      "type": "function"
    }
  ],
  "bytecode": "0x608060405234801561001057600080fd5b50610190806100206000396000f3fe608060405234801561001057600080fd5b50600436106100415760003560e01c806304806d601461004657806306748fb1146100625780639075ef9514610080575b600080fd5b610060600480360381019061005b9190610103565b61008a565b005b61006a610094565b604051610077919061013f565b60405180910390f35b61008861009a565b005b8060008190555050565b60005481565b7f5ec01e4d05e78bc42765428fe4dcd0e7ae452d1b3ab2a5c993498bd81778b70260405160405180910390a1565b600080fd5b6000819050919050565b6100e0816100cd565b81146100eb57600080fd5b50565b6000813590506100fd816100d7565b92915050565b600060208284031215610119576101186100c8565b5b6000610127848285016100ee565b91505092915050565b610139816100cd565b82525050565b60006020820190506101546000830184610130565b9291505056fea26469706673582212201df9c05e1682682a8e486806dbf899e91e14ae90dba723abd93025d9202dd50264736f6c634300080d0033",
  "immutableReferences": {},
  "source": "pragma solidity ^0.8.0;\n\ncontract Random {\n\n    uint256 public _random;\n\n    event random();\n\n    function emitRandom() public {\n        emit random();\n    }\n\n    function receiveRandom(uint256 number) public{\n        _random = number;\n    }\n}",
  "sourcePath": "/home/jiri/git/work/cleverlance/random/contracts/Random.sol",
  "compiler": {
    "name": "solc",
    "version": "0.8.13+commit.abaa5c0e.Emscripten.clang"
  },
  "schemaVersion": "3.4.6",
  "updatedAt": "2022-05-05T12:05:01.990Z",
  "networkType": "ethereum",
  "devdoc": {
    "kind": "dev",
    "methods": {},
    "version": 1
  },
  "userdoc": {
    "kind": "user",
    "methods": {},
    "version": 1
  }
}